:100000000C945D000C945C040C9435040C948500F5
:100010000C9485000C9485000C9485000C9485004C
:100020000C9485000C9485000C9485000C9485003C
:100030000C9485000C9485000C9485000C9485002C
:100040000C94EB030C9485000C9485000C948500B3
:100050000C9485000C9485000C9485000C9485000C
:100060000C9483040C948500000000080002010039
:100070000003040700000000000000000000000072
:10008000250028002B0000000000240027002A0083
:10009000040404040404040402020202020203032E
:1000A0000303030301020408102040800102040836
:1000B0001020010204081020A20511241FBECFEF5A
:1000C000D8E0DEBFCDBF11E0A0E0B1E0E6EDFDE09D
:1000D00002C005900D92A631B107D9F722E0A6E142
:1000E000B1E001C01D92A130B207E1F710E0CDE50B
:1000F000D0E004C02197FE010E94E306CC35D10771
:10010000C9F70E94D5050C94E9060C9400000895E7
:10011000089590E0FC01EC55FF4F249180579F4FCC
:10012000FC018491882399F090E0880F991FFC01CD
:10013000EA57FF4FA591B491FC01E458FF4F859118
:1001400094918FB7F894EC91E22BEC938FBF0895C4
:10015000982F2091D00181E0213208F043C0809196
:10016000CF018111FCCF8091C80132E03093CF01E3
:100170009093CE019FEF9093A6011092A50120933A
:10018000A401A8EAB1E0E4E8F1E090E0291331C06D
:100190001092830190918301880F892B80938301B2
:1001A0008091CD01813049F51092CD01809183017C
:1001B0008093BB008091BC0083FDF8CF85EC8093D9
:1001C000BC008091CF018230E1F38091A6018F3F86
:1001D000B1F08091A6018032A1F08091A601803318
:1001E00091F084E01092D1011092D0011092A701F9
:1001F00008953D9131939F5FC9CF85EEE0CF80E0B8
:10020000F1CF82E0EFCF83E0EDCF90E0FC01E85941
:10021000FF4F2491FC01EC55FF4F3491FC01E05756
:10022000FF4FE491EE23C9F0222339F0233001F18E
:10023000A8F4213019F1223029F1F0E0EE0FFF1F70
:10024000E458FF4FA591B4918FB7F894EC916111E8
:1002500026C030953E233C938FBF08952730A9F0E8
:100260002830C9F0243049F7809180008F7D03C089
:10027000809180008F7780938000DFCF84B58F7767
:1002800084BDDBCF84B58F7DFBCF8091B0008F77AD
:100290008093B000D2CF8091B0008F7DF9CF3E2BFC
:1002A000DACF1092D3011092D2011092D1011092A4
:1002B000D0011092CF0181E08093CE011092CD0148
:1002C00061E082E10E94050161E083E10E94050195
:1002D000E9EBF0E080818E7F808380818D7F808359
:1002E00088E48093B80085E48093BC0087E890E0C0
:1002F0009093CC018093CB0188E890E09093CA0161
:100300008093C901089508958EBD00000DB407FEC5
:10031000FDCF8EB5089585ED8093BC008091BC0023
:1003200084FDFCCF1092CF01089520915601260F35
:100330003327331F21323105ECF42091CF01FC012A
:1003400090E080E0243069F082E00895A0915601A9
:100350002191AC014A5C5E4FA40FB52FB11D2C93C7
:100360000196861798F380915601680F60935601A5
:1003700080E0089581E008950895E091D30180918F
:10038000D201E81730F4F0E0EA5EFE4F808190E0A1
:1003900008958FEF9FEF08959091D3018091D2013E
:1003A0002FEF3FEF981748F4E92FF0E0EA5EFE4F99
:1003B000208130E09F5F9093D301C901089580911F
:1003C000D2019091D301891B990B0895CF92DF92AE
:1003D000EF92FF920F931F93CF93DF937C01CB019A
:1003E0008A012091A701222389F0EB016B01C40E41
:1003F000D51ECC15DD0569F06991D701ED91FC9111
:100400000190F081E02DC7010995F3CF642F0E9480
:100410009501C801DF91CF911F910F91FF90EF904F
:10042000DF90CF900895CF93DF931F92CDB7DEB7C3
:1004300069832091A7012223F9F02091D001203275
:1004400058F021E030E0FC013383228390E080E02B
:100450000F90DF91CF9108958091D101E82FF0E0C6
:10046000E855FE4F998190838F5F8093D1018093EF
:10047000D00181E090E0ECCF61E0CE0101960E94D6
:100480009501F7CF90E080E008951F93CF93DF931D
:10049000EC01122F81E08093A7016093C8011092B4
:1004A000D1011092D001642F84ED91E00E941302DB
:1004B000612F84ED91E00E94130281E00E94A80068
:1004C00090E098878F83DF91CF911F9108952091BD
:1004D000F6013091F7018823B9F031603093F701CC
:1004E0002093F6012091F60142E06091F80182EF3D
:1004F00091E00E9445022091F70143E06091F801EC
:1005000082EF91E00C9445023E7FE8CFCF93DF93DA
:10051000EC012A813B8181E090E002C0880F991FA5
:100520006A95E2F74130A1F4809590958223932358
:100530009B838A832A8146E06E81CE010E94450218
:100540002B8147E06E81CE01DF91CF910C94450263
:10055000822B932BEDCFCF93DF93EC018E8191E033
:100560009093A7018093C8011092D1011092D001FD
:1005700062E084ED91E00E94130281E00E94A800F5
:10058000282F30E038872F8381E0232B09F080E08B
:10059000DF91CF9108950F931F93CF93DF93082F8F
:1005A000162FD42FC8E06D2F661F6627661F802F79
:1005B0000E940501DD0F61E0812F0E94050160E0CE
:1005C000812F0E940501C15071F7DF91CF911F91DA
:1005D0000F9108954F925F926F927F928F929F92A8
:1005E000AF92BF92CF92DF92EF92FF926B017C01AC
:1005F00060E08091FB010E940501270166247724B9
:100600008D2C9E2CAF2CBB2460E08091FC010E94BD
:100610000501809100028823F9F0842D0E94840155
:10062000882D0E9484018C2D0E94840161E08091BC
:10063000FC010E94050161E08091FB01FF90EF90B9
:10064000DF90CF90BF90AF909F908F907F906F90F2
:100650005F904F900C940501442D6091FF018091B3
:10066000FE010E94CB02482D6091FF018091FE01A6
:100670000E94CB024C2D6091FF018091FE010E94EF
:10068000CB02D4CFCF92DF92EF92FF9266EF78E960
:10069000681B790B84E0660F771F8A95E1F76B0181
:1006A000F12CE12CC70180610E94EA02C701B6016A
:1006B00082610E94EA02C701B6018461FF90EF9057
:1006C000DF90CF900C94EA020F931F93CF938C018D
:1006D000C62F81E08093A7016093C8011092D101D9
:1006E0001092D001642F84ED91E00E94130281E00A
:1006F0000E94A80090E0F801908787838091CF0145
:100700008111FCCF81E08093CF018093CE019FEFD8
:100710009093A6011092A5011092A40180938301E9
:1007200080918301CC0FC82BC09383018091CD01B0
:10073000813061F51092CD01809183018093BB00DF
:100740008091BC0083FDF8CF85EC8093BC00809144
:10075000CF018130E1F38091A50191E0811102C0C8
:100760009091A501A4E8B1E0E6E1F1E080E0891311
:100770000FC01092D3018093D201813069F484EDCF
:1007800091E0CF911F910F910C94CC0185EEDDCFBC
:100790002D9121938F5FEBCF80E091E0CF911F915E
:1007A0000F9108950F931F93CF93DF93EC0140E0D7
:1007B0006E810E9464038C0141E06E81CE010E9433
:1007C000640320E0382FC901802B912BDF91CF915A
:1007D0001F910F9108951F920F920FB60F9211243F
:1007E0002F933F938F939F93AF93BF9380917F01FC
:1007F00090918001A0918101B091820130917E01A0
:1008000023E0230F2D3758F50196A11DB11D20932C
:100810007E0180937F0190938001A0938101B0932A
:10082000820180917A0190917B01A0917C01B0912D
:100830007D010196A11DB11D80937A0190937B01EA
:10084000A0937C01B0937D01BF91AF919F918F9157
:100850003F912F910F900FBE0F901F90189526E893
:10086000230F0296A11DB11DD2CF1F920F920FB67A
:100870000F9211242F933F934F935F936F937F9326
:100880008F939F93AF93BF93EF93FF93E0910201F8
:10089000F09103010995FF91EF91BF91AF919F9165
:1008A0008F917F916F915F914F913F912F910F9019
:1008B0000FBE0F901F9018951F920F920FB60F92B8
:1008C00011242F933F934F935F936F937F938F9355
:1008D0009F93AF93BF93EF93FF93E0910001F0914B
:1008E00001010995FF91EF91BF91AF919F918F9178
:1008F0007F916F915F914F913F912F910F900FBE1C
:100900000F901F9018951F920F920FB60F921124FF
:100910002F933F934F935F936F937F938F939F9307
:10092000AF93BF93EF93FF938091B900887F803698
:1009300009F44AC0F0F5883209F4A7C018F58031EF
:1009400009F49BC0B8F4882309F4F9C0883009F48D
:1009500094C0FF91EF91BF91AF919F918F917F9143
:100960006F915F914F913F912F910F900FBE0F901C
:100970001F901895883109F488C0803251F7809310
:10098000A60114C0803409F49DC040F48033B9F34B
:100990008833F9F68093A60185ECB0C0803509F460
:1009A00085C0883509F496C0883499F60E948B0179
:1009B000D0CF883909F48CC038F5883729F050F445
:1009C000883611F0803729F683E08093CF011092AA
:1009D000780157C0883809F47BC0803919F0803815
:1009E00009F0B7CF80917801803208F071C0E091B2
:1009F000780181E08E0F809378018091BB00F0E058
:100A0000E85AFE4F80833DC0803B39F0E0F4803AE5
:100A100009F479C0883A09F09CCF84E08093CF0133
:100A20001092570110925601E091CB01F091CC0148
:100A300009958091560181110FC081E08093560184
:100A40001092360109C0803C09F4A6CF883C09F415
:100A5000A3CF883B09F07DCFE091570181E08E0F55
:100A600080935701F0E0EA5CFE4F80818093BB00E9
:100A7000909157018091560129C080918301809304
:100A8000BB0085EC8093BC0064CF9091A501809160
:100A9000A401981758F5E091A50181E08E0F80938D
:100AA000A501F0E0EC57FE4F8081E9CFE091A50170
:100AB00081E08E0F8093A5018091BB00F0E0EC57A0
:100AC000FE4F80839091A5018091A4019817C8F2F0
:100AD00085E8D8CFE091A50181E08E0F8093A50134
:100AE0008091BB00F0E0EC57FE4F80838091CE01F7
:100AF00081115CCF81E08093CD0184EA8093BC00BA
:100B00001092CF0126CF85EC8093BC001092CF01CC
:100B100080917801803230F4E0917801F0E0E85A79
:100B2000FE4F10826091780170E0E091C901F09170
:100B3000CA0188E591E00995109278010ACF1092D8
:100B4000A60134CFE4EDF1E01382128288EE93E047
:100B5000A0E0B0E084839583A683B78388E091E02A
:100B600091838083EBEFF1E08FEF80839AE09183B4
:100B700082838BE083838DE08483E2EFF1E083E284
:100B80008683158214820E945101E9EEF1E082E22F
:100B90008683158214820E945101E0EEF1E081E229
:100BA0008683158214820C945101789484B58260F6
:100BB00084BD84B5816084BD85B5826085BD85B501
:100BC000816085BD80916E00816080936E0010927F
:100BD00081008091810082608093810080918100FA
:100BE000816080938100809180008160809380008B
:100BF0008091B10084608093B1008091B0008160E9
:100C00008093B00080917A00846080937A00809114
:100C10007A00826080937A0080917A00816080936C
:100C20007A0080917A00806880937A001092C100E7
:100C30008091FB010E94890061E08091FB010E948C
:100C400005018091FC010E94890061E08091FC0116
:100C50000E9405018091FD010E94890060E0809161
:100C6000FD010E94050180910002882309F49CC0C7
:100C7000CFB7F89480917901811124C0EAE9F0E0BE
:100C80008491EEEAF0E09491E82FF0E0EE0FFF1F80
:100C9000EA57FF4FA591B491EC91E92321F461E06B
:100CA0008AE00E9405018AE00E9489008CB580617B
:100CB0008CBD8CB580648CBD8DE00E9489008BE07A
:100CC0000E948900809179018F5F80937901CFBF65
:100CD0008CB58F7D8CBD8CB58C7F8CBD8DB58160C6
:100CE0008DBD60E070E181E090E00E94EA0260E684
:100CF0007FE884E390E00E94EA0282EF91E00E94A4
:100D0000AB02CCE0C093B80089EE91E00E94AB0248
:100D1000C093B80080EE91E00E94AB02C093B8008F
:100D2000C0E041E06C2F82EF91E00E948602CF5F2D
:100D3000CF30B9F7C0E040E06C2F89EE91E00E941F
:100D40008602CF5FCF30B9F7C0E040E06C2F80EE75
:100D500091E00E948602CF5FCF30B9F786E00E9413
:100D60008900C0E0D0E089EE91E00E94D20380EEDD
:100D700091E00E94D20380EE91E00E94D20380684D
:100D800094608F3F9F47C9F48AEA91E00E94420332
:100D900061E086E00E94050180E00E9467022097E2
:100DA00011F30E940000DFCF8091FF010E948900B3
:100DB0008091FE010E94890094CF60E086E00E944D
:100DC000050181E0EACFEE0FFF1F0590F491E02DC1
:060DD0000994F894FFCF26
:100DD60083018301000000001302E6014202BC0108
:060DE600DF01CC01BD019C
:00000001FF
